{
  "address": "0x17FC72CA16208b085613B0CA120914c8D546A764",
  "abi": [
    {
      "inputs": [
        {
          "internalType": "address",
          "name": "_OHM",
          "type": "address"
        }
      ],
      "stateMutability": "nonpayable",
      "type": "constructor"
    },
    {
      "inputs": [],
      "name": "OHM",
      "outputs": [
        {
          "internalType": "address",
          "name": "",
          "type": "address"
        }
      ],
      "stateMutability": "view",
      "type": "function"
    },
    {
      "inputs": [
        {
          "internalType": "address",
          "name": "_pair",
          "type": "address"
        }
      ],
      "name": "getKValue",
      "outputs": [
        {
          "internalType": "uint256",
          "name": "k_",
          "type": "uint256"
        }
      ],
      "stateMutability": "view",
      "type": "function"
    },
    {
      "inputs": [
        {
          "internalType": "address",
          "name": "_pair",
          "type": "address"
        }
      ],
      "name": "getTotalValue",
      "outputs": [
        {
          "internalType": "uint256",
          "name": "_value",
          "type": "uint256"
        }
      ],
      "stateMutability": "view",
      "type": "function"
    },
    {
      "inputs": [
        {
          "internalType": "address",
          "name": "_pair",
          "type": "address"
        }
      ],
      "name": "markdown",
      "outputs": [
        {
          "internalType": "uint256",
          "name": "",
          "type": "uint256"
        }
      ],
      "stateMutability": "view",
      "type": "function"
    },
    {
      "inputs": [
        {
          "internalType": "address",
          "name": "_pair",
          "type": "address"
        },
        {
          "internalType": "uint256",
          "name": "amount_",
          "type": "uint256"
        }
      ],
      "name": "valuation",
      "outputs": [
        {
          "internalType": "uint256",
          "name": "_value",
          "type": "uint256"
        }
      ],
      "stateMutability": "view",
      "type": "function"
    }
  ],
  "transactionHash": "0xc7274bcc8598be11d70441fe3d95de84a72e8a65a256cd176d150cd56ee290ab",
  "args": [
    "0x80FAcC2c14E6F1B31A952C43264b333C2788f30f"
  ],
  "solcInputHash": "8d3774b312edc15e04c44a56a82de7d8",
  "bytecode": "0x60a060405234801561001057600080fd5b506040516113473803806113478339818101604052602081101561003357600080fd5b8101908080519060200190929190505050600073ffffffffffffffffffffffffffffffffffffffff168173ffffffffffffffffffffffffffffffffffffffff16141561007e57600080fd5b8073ffffffffffffffffffffffffffffffffffffffff1660808173ffffffffffffffffffffffffffffffffffffffff1660601b815250505060805160601c61126a6100dd600039806102bd52806103ac5280610933525061126a6000f3fe608060405234801561001057600080fd5b50600436106100575760003560e01c806332da80a31461005c5780634249719f146100b4578063490084ef14610116578063686375491461016e578063a6c41fec146101c6575b600080fd5b61009e6004803603602081101561007257600080fd5b81019080803573ffffffffffffffffffffffffffffffffffffffff1690602001909291905050506101fa565b6040518082815260200191505060405180910390f35b610100600480360360408110156100ca57600080fd5b81019080803573ffffffffffffffffffffffffffffffffffffffff1690602001909291908035906020019092919050505061047b565b6040518082815260200191505060405180910390f35b6101586004803603602081101561012c57600080fd5b81019080803573ffffffffffffffffffffffffffffffffffffffff169060200190929190505050610556565b6040518082815260200191505060405180910390f35b6101b06004803603602081101561018457600080fd5b81019080803573ffffffffffffffffffffffffffffffffffffffff169060200190929190505050610904565b6040518082815260200191505060405180910390f35b6101ce610931565b604051808273ffffffffffffffffffffffffffffffffffffffff16815260200191505060405180910390f35b60008060008373ffffffffffffffffffffffffffffffffffffffff16630902f1ac6040518163ffffffff1660e01b815260040160606040518083038186803b15801561024557600080fd5b505afa158015610259573d6000803e3d6000fd5b505050506040513d606081101561026f57600080fd5b81019080805190602001909291908051906020019092919080519060200190929190505050506dffffffffffffffffffffffffffff1691506dffffffffffffffffffffffffffff16915060007f000000000000000000000000000000000000000000000000000000000000000073ffffffffffffffffffffffffffffffffffffffff168573ffffffffffffffffffffffffffffffffffffffff16630dfe16816040518163ffffffff1660e01b815260040160206040518083038186803b15801561033857600080fd5b505afa15801561034c573d6000803e3d6000fd5b505050506040513d602081101561036257600080fd5b810190808051906020019092919050505073ffffffffffffffffffffffffffffffffffffffff1614156103975781905061039b565b8290505b6104716103a786610904565b6104637f000000000000000000000000000000000000000000000000000000000000000073ffffffffffffffffffffffffffffffffffffffff1663313ce5676040518163ffffffff1660e01b815260040160206040518083038186803b15801561041057600080fd5b505afa158015610424573d6000803e3d6000fd5b505050506040513d602081101561043a57600080fd5b810190808051906020019092919050505060ff16600a0a6002028461095590919063ffffffff16565b6109db90919063ffffffff16565b9350505050919050565b60008061048784610904565b905060008473ffffffffffffffffffffffffffffffffffffffff166318160ddd6040518163ffffffff1660e01b815260040160206040518083038186803b1580156104d157600080fd5b505afa1580156104e5573d6000803e3d6000fd5b505050506040513d60208110156104fb57600080fd5b8101908080519060200190929190505050905061054c670de0b6b3a764000061053e61052f61052a8886610a25565b610d06565b8561095590919063ffffffff16565b6109db90919063ffffffff16565b9250505092915050565b6000808273ffffffffffffffffffffffffffffffffffffffff16630dfe16816040518163ffffffff1660e01b815260040160206040518083038186803b15801561059f57600080fd5b505afa1580156105b3573d6000803e3d6000fd5b505050506040513d60208110156105c957600080fd5b810190808051906020019092919050505073ffffffffffffffffffffffffffffffffffffffff1663313ce5676040518163ffffffff1660e01b815260040160206040518083038186803b15801561061f57600080fd5b505afa158015610633573d6000803e3d6000fd5b505050506040513d602081101561064957600080fd5b810190808051906020019092919050505060ff16905060008373ffffffffffffffffffffffffffffffffffffffff1663d21220a76040518163ffffffff1660e01b815260040160206040518083038186803b1580156106a757600080fd5b505afa1580156106bb573d6000803e3d6000fd5b505050506040513d60208110156106d157600080fd5b810190808051906020019092919050505073ffffffffffffffffffffffffffffffffffffffff1663313ce5676040518163ffffffff1660e01b815260040160206040518083038186803b15801561072757600080fd5b505afa15801561073b573d6000803e3d6000fd5b505050506040513d602081101561075157600080fd5b810190808051906020019092919050505060ff16905060006108118573ffffffffffffffffffffffffffffffffffffffff1663313ce5676040518163ffffffff1660e01b815260040160206040518083038186803b1580156107b257600080fd5b505afa1580156107c6573d6000803e3d6000fd5b505050506040513d60208110156107dc57600080fd5b810190808051906020019092919050505060ff166108038486610d4290919063ffffffff16565b610dca90919063ffffffff16565b90506000808673ffffffffffffffffffffffffffffffffffffffff16630902f1ac6040518163ffffffff1660e01b815260040160606040518083038186803b15801561085c57600080fd5b505afa158015610870573d6000803e3d6000fd5b505050506040513d606081101561088657600080fd5b81019080805190602001909291908051906020019092919080519060200190929190505050506dffffffffffffffffffffffffffff1691506dffffffffffffffffffffffffffff1691506108f883600a0a6108ea838561095590919063ffffffff16565b6109db90919063ffffffff16565b95505050505050919050565b600061092a600261091c61091785610556565b610e14565b61095590919063ffffffff16565b9050919050565b7f000000000000000000000000000000000000000000000000000000000000000081565b60008083141561096857600090506109d5565b600082840290508284828161097957fe5b04146109d0576040517f08c379a00000000000000000000000000000000000000000000000000000000081526004018080602001828103825260218152602001806112146021913960400191505060405180910390fd5b809150505b92915050565b6000610a1d83836040518060400160405280601a81526020017f536166654d6174683a206469766973696f6e206279207a65726f000000000000815250610e84565b905092915050565b610a2d6111bc565b60008211610a86576040517f08c379a00000000000000000000000000000000000000000000000000000000081526004018080602001828103825260268152602001806111ee6026913960400191505060405180910390fd5b6000831415610ac457604051806020016040528060007bffffffffffffffffffffffffffffffffffffffffffffffffffffffff168152509050610d00565b7fffffffffffffffffffffffffffffffffffffffffffffffffffffffffffffffff71ffffffffffffffffffffffffffffffffffff168311610bfd57600082607060ff1685901b81610b1157fe5b0490507fffffffffffffffffffffffffffffffffffffffffffffffffffffffffffffffff7bffffffffffffffffffffffffffffffffffffffffffffffffffffffff16811115610bc8576040517f08c379a000000000000000000000000000000000000000000000000000000000815260040180806020018281038252601e8152602001807f4669786564506f696e743a3a6672616374696f6e3a206f766572666c6f77000081525060200191505060405180910390fd5b6040518060200160405280827bffffffffffffffffffffffffffffffffffffffffffffffffffffffff16815250915050610d00565b6000610c19846e01000000000000000000000000000085610f4a565b90507fffffffffffffffffffffffffffffffffffffffffffffffffffffffffffffffff7bffffffffffffffffffffffffffffffffffffffffffffffffffffffff16811115610ccf576040517f08c379a000000000000000000000000000000000000000000000000000000000815260040180806020018281038252601e8152602001807f4669786564506f696e743a3a6672616374696f6e3a206f766572666c6f77000081525060200191505060405180910390fd5b6040518060200160405280827bffffffffffffffffffffffffffffffffffffffffffffffffffffffff168152509150505b92915050565b60006612725dd1d243ab82600001517bffffffffffffffffffffffffffffffffffffffffffffffffffffffff1681610d3a57fe5b049050919050565b600080828401905083811015610dc0576040517f08c379a000000000000000000000000000000000000000000000000000000000815260040180806020018281038252601b8152602001807f536166654d6174683a206164646974696f6e206f766572666c6f77000000000081525060200191505060405180910390fd5b8091505092915050565b6000610e0c83836040518060400160405280601e81526020017f536166654d6174683a207375627472616374696f6e206f766572666c6f77000081525061100c565b905092915050565b60006003821115610e71578190506000610e39610e328460026109db565b6001610d42565b90505b81811015610e6b57809150610e64610e5d610e5785846109db565b83610d42565b60026109db565b9050610e3c565b50610e7f565b60008214610e7e57600190505b5b919050565b60008083118290610f30576040517f08c379a00000000000000000000000000000000000000000000000000000000081526004018080602001828103825283818151815260200191508051906020019080838360005b83811015610ef5578082015181840152602081019050610eda565b50505050905090810190601f168015610f225780820380516001836020036101000a031916815260200191505b509250505060405180910390fd5b506000838581610f3c57fe5b049050809150509392505050565b6000806000610f5986866110cc565b9150915060008480610f6757fe5b868809905082811115610f7b576001820391505b8083039250848210610ff5576040517f08c379a000000000000000000000000000000000000000000000000000000000815260040180806020018281038252601a8152602001807f46756c6c4d6174683a3a6d756c4469763a206f766572666c6f7700000000000081525060200191505060405180910390fd5b61100083838761111f565b93505050509392505050565b60008383111582906110b9576040517f08c379a00000000000000000000000000000000000000000000000000000000081526004018080602001828103825283818151815260200191508051906020019080838360005b8381101561107e578082015181840152602081019050611063565b50505050905090810190601f1680156110ab5780820380516001836020036101000a031916815260200191505b509250505060405180910390fd5b5060008385039050809150509392505050565b60008060007fffffffffffffffffffffffffffffffffffffffffffffffffffffffffffffffff806110f957fe5b84860990508385029250828103915082811015611117576001820391505b509250929050565b600080826000038316905080838161113357fe5b04925080858161113f57fe5b049450600181826000038161115057fe5b04018402850194506000600190508084026002038102905080840260020381029050808402600203810290508084026002038102905080840260020381029050808402600203810290508084026002038102905080840260020381029050808602925050509392505050565b604051806020016040528060007bffffffffffffffffffffffffffffffffffffffffffffffffffffffff168152509056fe4669786564506f696e743a3a6672616374696f6e3a206469766973696f6e206279207a65726f536166654d6174683a206d756c7469706c69636174696f6e206f766572666c6f77a26469706673582212202228171061b7ef5f91e024ba90dd609d3a10226771cfd522a7da5af15e6f36b364736f6c63430007050033",
  "devdoc": {
    "kind": "dev",
    "methods": {},
    "version": 1
  },
  "userdoc": {
    "kind": "user",
    "methods": {},
    "version": 1
  },
  "storageLayout": {
    "storage": [],
    "types": null
  }
}