{
  "address": "0x2663a2E5f4DF96b79377DA6B15e448b012838Cb8",
  "abi": [
    {
      "inputs": [
        {
          "internalType": "address",
          "name": "_staking",
          "type": "address"
        },
        {
          "internalType": "address",
          "name": "_OHM",
          "type": "address"
        }
      ],
      "stateMutability": "nonpayable",
      "type": "constructor"
    },
    {
      "inputs": [],
      "name": "OHM",
      "outputs": [
        {
          "internalType": "address",
          "name": "",
          "type": "address"
        }
      ],
      "stateMutability": "view",
      "type": "function"
    },
    {
      "inputs": [
        {
          "internalType": "uint256",
          "name": "_amount",
          "type": "uint256"
        }
      ],
      "name": "stake",
      "outputs": [],
      "stateMutability": "nonpayable",
      "type": "function"
    },
    {
      "inputs": [],
      "name": "staking",
      "outputs": [
        {
          "internalType": "address",
          "name": "",
          "type": "address"
        }
      ],
      "stateMutability": "view",
      "type": "function"
    }
  ],
  "transactionHash": "0x848127f940dad2728d1c3f6dbb6fc940fbb677314a4cfda1c9895346311f9ea5",
  "args": [
    "0x6137c9684283D515DE179cb897a5d0345C61488F",
    "0x80FAcC2c14E6F1B31A952C43264b333C2788f30f"
  ],
  "solcInputHash": "8d3774b312edc15e04c44a56a82de7d8",
  "bytecode": "0x60c060405234801561001057600080fd5b506040516106163803806106168339818101604052604081101561003357600080fd5b810190808051906020019092919080519060200190929190505050600073ffffffffffffffffffffffffffffffffffffffff168273ffffffffffffffffffffffffffffffffffffffff16141561008857600080fd5b8173ffffffffffffffffffffffffffffffffffffffff1660808173ffffffffffffffffffffffffffffffffffffffff1660601b81525050600073ffffffffffffffffffffffffffffffffffffffff168173ffffffffffffffffffffffffffffffffffffffff1614156100f957600080fd5b8073ffffffffffffffffffffffffffffffffffffffff1660a08173ffffffffffffffffffffffffffffffffffffffff1660601b81525050505060805160601c60a05160601c6104a36101736000398061010252806101ed528061044b52508060de528061022952806102da52806103a752506104a36000f3fe608060405234801561001057600080fd5b50600436106100415760003560e01c80634cf088d914610046578063a694fc3a1461007a578063a6c41fec146100a8575b600080fd5b61004e6100dc565b604051808273ffffffffffffffffffffffffffffffffffffffff16815260200191505060405180910390f35b6100a66004803603602081101561009057600080fd5b8101908080359060200190929190505050610100565b005b6100b0610449565b604051808273ffffffffffffffffffffffffffffffffffffffff16815260200191505060405180910390f35b7f000000000000000000000000000000000000000000000000000000000000000081565b7f000000000000000000000000000000000000000000000000000000000000000073ffffffffffffffffffffffffffffffffffffffff166323b872dd3330846040518463ffffffff1660e01b8152600401808473ffffffffffffffffffffffffffffffffffffffff1681526020018373ffffffffffffffffffffffffffffffffffffffff1681526020018281526020019350505050602060405180830381600087803b1580156101af57600080fd5b505af11580156101c3573d6000803e3d6000fd5b505050506040513d60208110156101d957600080fd5b8101908080519060200190929190505050507f000000000000000000000000000000000000000000000000000000000000000073ffffffffffffffffffffffffffffffffffffffff1663095ea7b37f0000000000000000000000000000000000000000000000000000000000000000836040518363ffffffff1660e01b8152600401808373ffffffffffffffffffffffffffffffffffffffff16815260200182815260200192505050602060405180830381600087803b15801561029c57600080fd5b505af11580156102b0573d6000803e3d6000fd5b505050506040513d60208110156102c657600080fd5b8101908080519060200190929190505050507f000000000000000000000000000000000000000000000000000000000000000073ffffffffffffffffffffffffffffffffffffffff16637acb775782336040518363ffffffff1660e01b8152600401808381526020018273ffffffffffffffffffffffffffffffffffffffff16815260200192505050602060405180830381600087803b15801561036957600080fd5b505af115801561037d573d6000803e3d6000fd5b505050506040513d602081101561039357600080fd5b8101908080519060200190929190505050507f000000000000000000000000000000000000000000000000000000000000000073ffffffffffffffffffffffffffffffffffffffff16631e83409a336040518263ffffffff1660e01b8152600401808273ffffffffffffffffffffffffffffffffffffffff168152602001915050600060405180830381600087803b15801561042e57600080fd5b505af1158015610442573d6000803e3d6000fd5b5050505050565b7f00000000000000000000000000000000000000000000000000000000000000008156fea2646970667358221220e00da5a107b22af35ca659ee921161d0f71790b915b995931cf7d2282cfae6e664736f6c63430007050033",
  "devdoc": {
    "kind": "dev",
    "methods": {},
    "version": 1
  },
  "userdoc": {
    "kind": "user",
    "methods": {},
    "version": 1
  },
  "storageLayout": {
    "storage": [],
    "types": null
  }
}