{
  "address": "0xAECEc67825F49AAD1962F0557266A6Ba501Ddcea",
  "abi": [
    {
      "inputs": [
        {
          "internalType": "address",
          "name": "_treasury",
          "type": "address"
        },
        {
          "internalType": "address",
          "name": "_ohm",
          "type": "address"
        },
        {
          "internalType": "uint256",
          "name": "_epochLength",
          "type": "uint256"
        },
        {
          "internalType": "uint256",
          "name": "_nextEpochTime",
          "type": "uint256"
        }
      ],
      "stateMutability": "nonpayable",
      "type": "constructor"
    },
    {
      "anonymous": false,
      "inputs": [
        {
          "indexed": true,
          "internalType": "address",
          "name": "previousOwner",
          "type": "address"
        },
        {
          "indexed": true,
          "internalType": "address",
          "name": "newOwner",
          "type": "address"
        }
      ],
      "name": "OwnershipTransferred",
      "type": "event"
    },
    {
      "inputs": [],
      "name": "OHM",
      "outputs": [
        {
          "internalType": "address",
          "name": "",
          "type": "address"
        }
      ],
      "stateMutability": "view",
      "type": "function"
    },
    {
      "inputs": [
        {
          "internalType": "address",
          "name": "_recipient",
          "type": "address"
        },
        {
          "internalType": "uint256",
          "name": "_rewardRate",
          "type": "uint256"
        }
      ],
      "name": "addRecipient",
      "outputs": [],
      "stateMutability": "nonpayable",
      "type": "function"
    },
    {
      "inputs": [
        {
          "internalType": "uint256",
          "name": "",
          "type": "uint256"
        }
      ],
      "name": "adjustments",
      "outputs": [
        {
          "internalType": "bool",
          "name": "add",
          "type": "bool"
        },
        {
          "internalType": "uint256",
          "name": "rate",
          "type": "uint256"
        },
        {
          "internalType": "uint256",
          "name": "target",
          "type": "uint256"
        }
      ],
      "stateMutability": "view",
      "type": "function"
    },
    {
      "inputs": [],
      "name": "distribute",
      "outputs": [
        {
          "internalType": "bool",
          "name": "",
          "type": "bool"
        }
      ],
      "stateMutability": "nonpayable",
      "type": "function"
    },
    {
      "inputs": [],
      "name": "epochLength",
      "outputs": [
        {
          "internalType": "uint256",
          "name": "",
          "type": "uint256"
        }
      ],
      "stateMutability": "view",
      "type": "function"
    },
    {
      "inputs": [
        {
          "internalType": "uint256",
          "name": "",
          "type": "uint256"
        }
      ],
      "name": "info",
      "outputs": [
        {
          "internalType": "uint256",
          "name": "rate",
          "type": "uint256"
        },
        {
          "internalType": "address",
          "name": "recipient",
          "type": "address"
        }
      ],
      "stateMutability": "view",
      "type": "function"
    },
    {
      "inputs": [],
      "name": "nextEpochTime",
      "outputs": [
        {
          "internalType": "uint256",
          "name": "",
          "type": "uint256"
        }
      ],
      "stateMutability": "view",
      "type": "function"
    },
    {
      "inputs": [
        {
          "internalType": "uint256",
          "name": "_rate",
          "type": "uint256"
        }
      ],
      "name": "nextRewardAt",
      "outputs": [
        {
          "internalType": "uint256",
          "name": "",
          "type": "uint256"
        }
      ],
      "stateMutability": "view",
      "type": "function"
    },
    {
      "inputs": [
        {
          "internalType": "address",
          "name": "_recipient",
          "type": "address"
        }
      ],
      "name": "nextRewardFor",
      "outputs": [
        {
          "internalType": "uint256",
          "name": "",
          "type": "uint256"
        }
      ],
      "stateMutability": "view",
      "type": "function"
    },
    {
      "inputs": [],
      "name": "policy",
      "outputs": [
        {
          "internalType": "address",
          "name": "",
          "type": "address"
        }
      ],
      "stateMutability": "view",
      "type": "function"
    },
    {
      "inputs": [],
      "name": "pullPolicy",
      "outputs": [],
      "stateMutability": "nonpayable",
      "type": "function"
    },
    {
      "inputs": [
        {
          "internalType": "address",
          "name": "newPolicy_",
          "type": "address"
        }
      ],
      "name": "pushPolicy",
      "outputs": [],
      "stateMutability": "nonpayable",
      "type": "function"
    },
    {
      "inputs": [
        {
          "internalType": "uint256",
          "name": "_index",
          "type": "uint256"
        },
        {
          "internalType": "address",
          "name": "_recipient",
          "type": "address"
        }
      ],
      "name": "removeRecipient",
      "outputs": [],
      "stateMutability": "nonpayable",
      "type": "function"
    },
    {
      "inputs": [],
      "name": "renouncePolicy",
      "outputs": [],
      "stateMutability": "nonpayable",
      "type": "function"
    },
    {
      "inputs": [
        {
          "internalType": "uint256",
          "name": "_index",
          "type": "uint256"
        },
        {
          "internalType": "bool",
          "name": "_add",
          "type": "bool"
        },
        {
          "internalType": "uint256",
          "name": "_rate",
          "type": "uint256"
        },
        {
          "internalType": "uint256",
          "name": "_target",
          "type": "uint256"
        }
      ],
      "name": "setAdjustment",
      "outputs": [],
      "stateMutability": "nonpayable",
      "type": "function"
    },
    {
      "inputs": [],
      "name": "treasury",
      "outputs": [
        {
          "internalType": "address",
          "name": "",
          "type": "address"
        }
      ],
      "stateMutability": "view",
      "type": "function"
    }
  ],
  "transactionHash": "0x2289014c8d8b4acb69e58a3448fa9e3f6c68d462ca16b60163afe897bf72ef69",
  "args": [
    "0x1e0AD0F8DDFF84FDc938373E9aa66b8d994ea066",
    "0x9bb5E7183e6259183f8E79876eCC0228738C95F6",
    28800,
    1640930868
  ],
  "solcInputHash": "80205d7caa85cf7d901b88f836b16309",
  "bytecode": "0x60e060405234801561001057600080fd5b506040516119be3803806119be8339818101604052608081101561003357600080fd5b8101908080519060200190929190805190602001909291908051906020019092919080519060200190929190505050336000806101000a81548173ffffffffffffffffffffffffffffffffffffffff021916908373ffffffffffffffffffffffffffffffffffffffff16021790555060008054906101000a900473ffffffffffffffffffffffffffffffffffffffff1673ffffffffffffffffffffffffffffffffffffffff16600073ffffffffffffffffffffffffffffffffffffffff167f8be0079c531659141344cd1fd0a4f28419497f9722a3daafe3b4186f6b6457e060405160405180910390a3600073ffffffffffffffffffffffffffffffffffffffff168473ffffffffffffffffffffffffffffffffffffffff16141561015757600080fd5b8373ffffffffffffffffffffffffffffffffffffffff1660a08173ffffffffffffffffffffffffffffffffffffffff1660601b81525050600073ffffffffffffffffffffffffffffffffffffffff168373ffffffffffffffffffffffffffffffffffffffff1614156101c857600080fd5b8273ffffffffffffffffffffffffffffffffffffffff1660808173ffffffffffffffffffffffffffffffffffffffff1660601b815250508160c08181525050806002819055505050505060805160601c60a05160601c60c05161176b610253600039806105d55280610ce95250806108815280610d58525080610baf5280610c17525061176b6000f3fe608060405234801561001057600080fd5b50600436106101005760003560e01c8063a15ad07711610097578063c9fa8b2a11610066578063c9fa8b2a1461038c578063e4fc6b6d146103ce578063f7982243146103ee578063fe3fbbad1461043c57610100565b8063a15ad077146102b8578063a4b23980146102fc578063a6c41fec14610306578063bc3b2b121461033a57610100565b806357d775f8116100d357806357d775f81461020e5780635beede081461022c5780635db854b01461023657806361d027b31461028457610100565b80630505c8c9146101055780631da56eb3146101395780632e3405991461015757806336d33f44146101b6575b600080fd5b61010d61048a565b604051808273ffffffffffffffffffffffffffffffffffffffff16815260200191505060405180910390f35b6101416104b3565b6040518082815260200191505060405180910390f35b6101836004803603602081101561016d57600080fd5b81019080803590602001909291905050506104b9565b604051808381526020018273ffffffffffffffffffffffffffffffffffffffff1681526020019250505060405180910390f35b6101f8600480360360208110156101cc57600080fd5b81019080803573ffffffffffffffffffffffffffffffffffffffff16906020019092919050505061050d565b6040518082815260200191505060405180910390f35b6102166105d3565b6040518082815260200191505060405180910390f35b6102346105f7565b005b6102826004803603608081101561024c57600080fd5b81019080803590602001909291908035151590602001909291908035906020019092919080359060200190929190505050610751565b005b61028c61087f565b604051808273ffffffffffffffffffffffffffffffffffffffff16815260200191505060405180910390f35b6102fa600480360360208110156102ce57600080fd5b81019080803573ffffffffffffffffffffffffffffffffffffffff1690602001909291905050506108a3565b005b610304610a2e565b005b61030e610bad565b604051808273ffffffffffffffffffffffffffffffffffffffff16815260200191505060405180910390f35b6103666004803603602081101561035057600080fd5b8101908080359060200190929190505050610bd1565b604051808415158152602001838152602001828152602001935050505060405180910390f35b6103b8600480360360208110156103a257600080fd5b8101908080359060200190929190505050610c08565b6040518082815260200191505060405180910390f35b6103d6610cd9565b60405180821515815260200191505060405180910390f35b61043a6004803603604081101561040457600080fd5b81019080803573ffffffffffffffffffffffffffffffffffffffff16906020019092919080359060200190929190505050610e8c565b005b6104886004803603604081101561045257600080fd5b8101908080359060200190929190803573ffffffffffffffffffffffffffffffffffffffff169060200190929190505050611034565b005b60008060009054906101000a900473ffffffffffffffffffffffffffffffffffffffff16905090565b60025481565b600481815481106104c957600080fd5b90600052602060002090600202016000915090508060000154908060010160009054906101000a900473ffffffffffffffffffffffffffffffffffffffff16905082565b60008060005b6004805490508110156105c9578373ffffffffffffffffffffffffffffffffffffffff166004828154811061054457fe5b906000526020600020906002020160010160009054906101000a900473ffffffffffffffffffffffffffffffffffffffff1673ffffffffffffffffffffffffffffffffffffffff1614156105bc576105b9600482815481106105a257fe5b906000526020600020906002020160000154610c08565b91505b8080600101915050610513565b5080915050919050565b7f000000000000000000000000000000000000000000000000000000000000000081565b600160009054906101000a900473ffffffffffffffffffffffffffffffffffffffff1673ffffffffffffffffffffffffffffffffffffffff163373ffffffffffffffffffffffffffffffffffffffff161461065157600080fd5b600160009054906101000a900473ffffffffffffffffffffffffffffffffffffffff1673ffffffffffffffffffffffffffffffffffffffff1660008054906101000a900473ffffffffffffffffffffffffffffffffffffffff1673ffffffffffffffffffffffffffffffffffffffff167f8be0079c531659141344cd1fd0a4f28419497f9722a3daafe3b4186f6b6457e060405160405180910390a3600160009054906101000a900473ffffffffffffffffffffffffffffffffffffffff166000806101000a81548173ffffffffffffffffffffffffffffffffffffffff021916908373ffffffffffffffffffffffffffffffffffffffff160217905550565b3373ffffffffffffffffffffffffffffffffffffffff1660008054906101000a900473ffffffffffffffffffffffffffffffffffffffff1673ffffffffffffffffffffffffffffffffffffffff1614610812576040517f08c379a00000000000000000000000000000000000000000000000000000000081526004018080602001828103825260208152602001807f4f776e61626c653a2063616c6c6572206973206e6f7420746865206f776e657281525060200191505060405180910390fd5b60405180606001604052808415158152602001838152602001828152506003600086815260200190815260200160002060008201518160000160006101000a81548160ff021916908315150217905550602082015181600101556040820151816002015590505050505050565b7f000000000000000000000000000000000000000000000000000000000000000081565b3373ffffffffffffffffffffffffffffffffffffffff1660008054906101000a900473ffffffffffffffffffffffffffffffffffffffff1673ffffffffffffffffffffffffffffffffffffffff1614610964576040517f08c379a00000000000000000000000000000000000000000000000000000000081526004018080602001828103825260208152602001807f4f776e61626c653a2063616c6c6572206973206e6f7420746865206f776e657281525060200191505060405180910390fd5b600073ffffffffffffffffffffffffffffffffffffffff168173ffffffffffffffffffffffffffffffffffffffff1614156109ea576040517f08c379a00000000000000000000000000000000000000000000000000000000081526004018080602001828103825260268152602001806116ef6026913960400191505060405180910390fd5b80600160006101000a81548173ffffffffffffffffffffffffffffffffffffffff021916908373ffffffffffffffffffffffffffffffffffffffff16021790555050565b3373ffffffffffffffffffffffffffffffffffffffff1660008054906101000a900473ffffffffffffffffffffffffffffffffffffffff1673ffffffffffffffffffffffffffffffffffffffff1614610aef576040517f08c379a00000000000000000000000000000000000000000000000000000000081526004018080602001828103825260208152602001807f4f776e61626c653a2063616c6c6572206973206e6f7420746865206f776e657281525060200191505060405180910390fd5b600073ffffffffffffffffffffffffffffffffffffffff1660008054906101000a900473ffffffffffffffffffffffffffffffffffffffff1673ffffffffffffffffffffffffffffffffffffffff167f8be0079c531659141344cd1fd0a4f28419497f9722a3daafe3b4186f6b6457e060405160405180910390a360008060006101000a81548173ffffffffffffffffffffffffffffffffffffffff021916908373ffffffffffffffffffffffffffffffffffffffff160217905550565b7f000000000000000000000000000000000000000000000000000000000000000081565b60036020528060005260406000206000915090508060000160009054906101000a900460ff16908060010154908060020154905083565b6000610cd2620f4240610cc4847f000000000000000000000000000000000000000000000000000000000000000073ffffffffffffffffffffffffffffffffffffffff166318160ddd6040518163ffffffff1660e01b815260040160206040518083038186803b158015610c7b57600080fd5b505afa158015610c8f573d6000803e3d6000fd5b505050506040513d6020811015610ca557600080fd5b81019080805190602001909291905050506111f190919063ffffffff16565b61127790919063ffffffff16565b9050919050565b60004260025411610e8457610d197f00000000000000000000000000000000000000000000000000000000000000006002546112c190919063ffffffff16565b60028190555060005b600480549050811015610e7a57600060048281548110610d3e57fe5b9060005260206000209060020201600001541115610e6d577f000000000000000000000000000000000000000000000000000000000000000073ffffffffffffffffffffffffffffffffffffffff16636a20de9260048381548110610d9f57fe5b906000526020600020906002020160010160009054906101000a900473ffffffffffffffffffffffffffffffffffffffff16610df860048581548110610de157fe5b906000526020600020906002020160000154610c08565b6040518363ffffffff1660e01b8152600401808373ffffffffffffffffffffffffffffffffffffffff16815260200182815260200192505050600060405180830381600087803b158015610e4b57600080fd5b505af1158015610e5f573d6000803e3d6000fd5b50505050610e6c81611349565b5b8080600101915050610d22565b5060019050610e89565b600090505b90565b3373ffffffffffffffffffffffffffffffffffffffff1660008054906101000a900473ffffffffffffffffffffffffffffffffffffffff1673ffffffffffffffffffffffffffffffffffffffff1614610f4d576040517f08c379a00000000000000000000000000000000000000000000000000000000081526004018080602001828103825260208152602001807f4f776e61626c653a2063616c6c6572206973206e6f7420746865206f776e657281525060200191505060405180910390fd5b600073ffffffffffffffffffffffffffffffffffffffff168273ffffffffffffffffffffffffffffffffffffffff161415610f8757600080fd5b600460405180604001604052808381526020018473ffffffffffffffffffffffffffffffffffffffff1681525090806001815401808255809150506001900390600052602060002090600202016000909190919091506000820151816000015560208201518160010160006101000a81548173ffffffffffffffffffffffffffffffffffffffff021916908373ffffffffffffffffffffffffffffffffffffffff16021790555050505050565b3373ffffffffffffffffffffffffffffffffffffffff1660008054906101000a900473ffffffffffffffffffffffffffffffffffffffff1673ffffffffffffffffffffffffffffffffffffffff16146110f5576040517f08c379a00000000000000000000000000000000000000000000000000000000081526004018080602001828103825260208152602001807f4f776e61626c653a2063616c6c6572206973206e6f7420746865206f776e657281525060200191505060405180910390fd5b6004828154811061110257fe5b906000526020600020906002020160010160009054906101000a900473ffffffffffffffffffffffffffffffffffffffff1673ffffffffffffffffffffffffffffffffffffffff168173ffffffffffffffffffffffffffffffffffffffff161461116b57600080fd5b60006004838154811061117a57fe5b906000526020600020906002020160010160006101000a81548173ffffffffffffffffffffffffffffffffffffffff021916908373ffffffffffffffffffffffffffffffffffffffff1602179055506000600483815481106111d857fe5b9060005260206000209060020201600001819055505050565b6000808314156112045760009050611271565b600082840290508284828161121557fe5b041461126c576040517f08c379a00000000000000000000000000000000000000000000000000000000081526004018080602001828103825260218152602001806117156021913960400191505060405180910390fd5b809150505b92915050565b60006112b983836040518060400160405280601a81526020017f536166654d6174683a206469766973696f6e206279207a65726f0000000000008152506114fb565b905092915050565b60008082840190508381101561133f576040517f08c379a000000000000000000000000000000000000000000000000000000000815260040180806020018281038252601b8152602001807f536166654d6174683a206164646974696f6e206f766572666c6f77000000000081525060200191505060405180910390fd5b8091505092915050565b6113516116cb565b600360008381526020019081526020016000206040518060600160405290816000820160009054906101000a900460ff1615151515815260200160018201548152602001600282015481525050905060008160200151146114f757806000015115611458576113eb8160200151600484815481106113cb57fe5b9060005260206000209060020201600001546112c190919063ffffffff16565b600483815481106113f857fe5b90600052602060002090600202016000018190555080604001516004838154811061141f57fe5b9060005260206000209060020201600001541061145357600060036000848152602001908152602001600020600101819055505b6114f6565b61148d81602001516004848154811061146d57fe5b9060005260206000209060020201600001546115c190919063ffffffff16565b6004838154811061149a57fe5b9060005260206000209060020201600001819055508060400151600483815481106114c157fe5b906000526020600020906002020160000154116114f557600060036000848152602001908152602001600020600101819055505b5b5b5050565b600080831182906115a7576040517f08c379a00000000000000000000000000000000000000000000000000000000081526004018080602001828103825283818151815260200191508051906020019080838360005b8381101561156c578082015181840152602081019050611551565b50505050905090810190601f1680156115995780820380516001836020036101000a031916815260200191505b509250505060405180910390fd5b5060008385816115b357fe5b049050809150509392505050565b600061160383836040518060400160405280601e81526020017f536166654d6174683a207375627472616374696f6e206f766572666c6f77000081525061160b565b905092915050565b60008383111582906116b8576040517f08c379a00000000000000000000000000000000000000000000000000000000081526004018080602001828103825283818151815260200191508051906020019080838360005b8381101561167d578082015181840152602081019050611662565b50505050905090810190601f1680156116aa5780820380516001836020036101000a031916815260200191505b509250505060405180910390fd5b5060008385039050809150509392505050565b60405180606001604052806000151581526020016000815260200160008152509056fe4f776e61626c653a206e6577206f776e657220697320746865207a65726f2061646472657373536166654d6174683a206d756c7469706c69636174696f6e206f766572666c6f77a2646970667358221220da1e081b92d33f3b4f19bc0c14d9ea5513eb9924c2a3d9fda548113efbd01e6b64736f6c63430007050033",
  "devdoc": {
    "kind": "dev",
    "methods": {
      "addRecipient(address,uint256)": {
        "params": {
          "_recipient": "address",
          "_rewardRate": "uint"
        }
      },
      "nextRewardAt(uint256)": {
        "params": {
          "_rate": "uint"
        },
        "returns": {
          "_0": "uint"
        }
      },
      "nextRewardFor(address)": {
        "params": {
          "_recipient": "address"
        },
        "returns": {
          "_0": "uint"
        }
      },
      "removeRecipient(uint256,address)": {
        "params": {
          "_index": "uint",
          "_recipient": "address"
        }
      },
      "setAdjustment(uint256,bool,uint256,uint256)": {
        "params": {
          "_add": "bool",
          "_index": "uint",
          "_rate": "uint",
          "_target": "uint"
        }
      }
    },
    "version": 1
  },
  "userdoc": {
    "kind": "user",
    "methods": {
      "addRecipient(address,uint256)": {
        "notice": "adds recipient for distributions"
      },
      "distribute()": {
        "notice": "send epoch reward to staking contract"
      },
      "nextRewardAt(uint256)": {
        "notice": "view function for next reward at given rate"
      },
      "nextRewardFor(address)": {
        "notice": "view function for next reward for specified address"
      },
      "removeRecipient(uint256,address)": {
        "notice": "removes recipient for distributions"
      },
      "setAdjustment(uint256,bool,uint256,uint256)": {
        "notice": "set adjustment info for a collector's reward rate"
      }
    },
    "version": 1
  },
  "storageLayout": {
    "storage": [
      {
        "astId": 2765,
        "contract": "contracts/StakingDistributor.sol:Distributor",
        "label": "_policy",
        "offset": 0,
        "slot": "0",
        "type": "t_address"
      },
      {
        "astId": 2767,
        "contract": "contracts/StakingDistributor.sol:Distributor",
        "label": "_newPolicy",
        "offset": 0,
        "slot": "1",
        "type": "t_address"
      },
      {
        "astId": 2902,
        "contract": "contracts/StakingDistributor.sol:Distributor",
        "label": "nextEpochTime",
        "offset": 0,
        "slot": "2",
        "type": "t_uint256"
      },
      {
        "astId": 2906,
        "contract": "contracts/StakingDistributor.sol:Distributor",
        "label": "adjustments",
        "offset": 0,
        "slot": "3",
        "type": "t_mapping(t_uint256,t_struct(Adjust)2921_storage)"
      },
      {
        "astId": 2914,
        "contract": "contracts/StakingDistributor.sol:Distributor",
        "label": "info",
        "offset": 0,
        "slot": "4",
        "type": "t_array(t_struct(Info)2911_storage)dyn_storage"
      }
    ],
    "types": {
      "t_address": {
        "encoding": "inplace",
        "label": "address",
        "numberOfBytes": "20"
      },
      "t_array(t_struct(Info)2911_storage)dyn_storage": {
        "base": "t_struct(Info)2911_storage",
        "encoding": "dynamic_array",
        "label": "struct Distributor.Info[]",
        "numberOfBytes": "32"
      },
      "t_bool": {
        "encoding": "inplace",
        "label": "bool",
        "numberOfBytes": "1"
      },
      "t_mapping(t_uint256,t_struct(Adjust)2921_storage)": {
        "encoding": "mapping",
        "key": "t_uint256",
        "label": "mapping(uint256 => struct Distributor.Adjust)",
        "numberOfBytes": "32",
        "value": "t_struct(Adjust)2921_storage"
      },
      "t_struct(Adjust)2921_storage": {
        "encoding": "inplace",
        "label": "struct Distributor.Adjust",
        "members": [
          {
            "astId": 2916,
            "contract": "contracts/StakingDistributor.sol:Distributor",
            "label": "add",
            "offset": 0,
            "slot": "0",
            "type": "t_bool"
          },
          {
            "astId": 2918,
            "contract": "contracts/StakingDistributor.sol:Distributor",
            "label": "rate",
            "offset": 0,
            "slot": "1",
            "type": "t_uint256"
          },
          {
            "astId": 2920,
            "contract": "contracts/StakingDistributor.sol:Distributor",
            "label": "target",
            "offset": 0,
            "slot": "2",
            "type": "t_uint256"
          }
        ],
        "numberOfBytes": "96"
      },
      "t_struct(Info)2911_storage": {
        "encoding": "inplace",
        "label": "struct Distributor.Info",
        "members": [
          {
            "astId": 2908,
            "contract": "contracts/StakingDistributor.sol:Distributor",
            "label": "rate",
            "offset": 0,
            "slot": "0",
            "type": "t_uint256"
          },
          {
            "astId": 2910,
            "contract": "contracts/StakingDistributor.sol:Distributor",
            "label": "recipient",
            "offset": 0,
            "slot": "1",
            "type": "t_address"
          }
        ],
        "numberOfBytes": "64"
      },
      "t_uint256": {
        "encoding": "inplace",
        "label": "uint256",
        "numberOfBytes": "32"
      }
    }
  }
}